:020000040800F2
:100000003814002045010008FB1A0008CD1800082C
:10001000F91A00088B080008C92300080000000036
:100020000000000000000000000000009521000812
:100030008D08000800000000FD1A00089721000844
:100040005F0100085F0100085F0100085F01000810
:100050005F0100085F0100085F0100085F01000800
:100060005F0100085F0100085F0100085F010008F0
:100070005F0100085F0100085F0100085F010008E0
:100080005F0100085F0100085F0100085F010008D0
:100090005F0100085F0100085F0100085F010008C0
:1000A0005F0100085F0100085F0100085F010008B0
:1000B0005F0100085F0100085F0100085F010008A0
:1000C0005F0100085F0100085F0100085F01000890
:1000D0005F010008692300085F0100085F01000854
:1000E0005F0100085F0100085F0100085F01000870
:1000F0005F0100085F0100085F0100085F01000860
:100100005F0100085F0100085F0100085F0100084F
:100110005F0100085F010008192200085F01000864
:100120005F0100085F0100085F0100085F0100082F
:10013000DFF80CD000F040FB00480047E135000834
:10014000381400200648804706480047FEE7FEE7CF
:10015000FEE7FEE7FEE7FEE7FEE7FEE7FEE7FEE777
:100160001522000831010008202A04DB203A21FA78
:1001700002F00021704721FA02F3D040C2F12002C0
:100180009140084319467047D2B201E000F8012BB4
:10019000491EFBD270470022F6E710B513460A4607
:1001A00004461946FFF7F0FF204610BD30B505465E
:1001B0002A460B4612F8010B13F8014B08B1A04276
:1001C000F8D01CB1002802D06D1CF1E7284630BDE4
:1001D000421C10F8011B0029FBD1801A70472DE941
:1001E000FE4F804681EA0300C00F0C46009021F0CC
:1001F000004123F00045B8EB0200A94105D240467A
:10020000214690461C460B46024623F00040104310
:1002100047D0270DC7F30A00C3F30A510290401AD2
:10022000019040286BDAC3F3130040F4801B009860
:10023000924620B10023D2EB030A63EB0B0B01982B
:100240005946C0F14002504600F01FFA06460D46DE
:1002500050465946019A00F027FA10EB0800614118
:10026000002487EA115284EAE7731A4340D0009AC7
:1002700062B3019A012A4FEA075215DC001B61EBB9
:1002800002014FF0004202EA0752CDE90042001C91
:1002900041F5801132462B4600F027FA03B0BDE845
:1002A000F08F40462146F9E7001B61EB0201001C7C
:1002B00041F5801300185B412018A2F5001747EBA9
:1002C000030140EAD570B6196D4111E06D084FEA9F
:1002D000360645EAC0754FEA0752001B61EB020182
:1002E000001C41F5801149084FEA300000195141C6
:1002F00032462B4603B0BDE8F04F00F0E7B9009856
:10030000012240000023D0EB020263EBE07300986F
:1003100021464FEAE074B8EB000061EB0401E9E725
:1003200083F000435BE781F0004158E72DE9FE4F81
:1003300081EA030404F0004421F0004100944FF0EE
:10034000000B23F0004350EA01045ED052EA03049C
:100350005BD0C3F30A54C1F30A552C44A4F2F3341E
:100360000194A0FB0254C1F3130141F48011C3F3C3
:10037000130343F4801301FB024400FB034E840A81
:10038000970A44EA815447EA8357A4FB0768029519
:100390008D0A05FB07854FEA932C04FB0C542705B7
:1003A000029D4FEA065847EA1637B5EB08056EEB93
:1003B000070C870E920E47EA811742EA8312A7FBC9
:1003C0000201B6EB0B0164EB00042B0D43EA0C3386
:1003D0005E1844EB1C50DA465146E7FB0201C5F3B8
:1003E00013044FEA0B3343EA14534FEA0432019CDF
:1003F00043EA0603A4F10C040294009CCDE900B486
:1004000000F073F903B0BDE8F08F00200146F9E772
:100410002DE9F04D81EA030404F0004B21F0004582
:1004200014464FF0000A23F0004150EA050220D0A4
:1004300054EA01021DD0C5F30A570246C5F313035F
:10044000C1F31300C1F30A5640F4801543F480133E
:10045000A7EB0608101BD64608F2FD3873EB050023
:1004600002D308F1010801E092185B41B8F1000FD6
:1004700003DA00200146BDE8F08D00204FF4801122
:10048000064684460EE0171B73EB050705D3121BC7
:1004900063EB050306434CEA010C49084FEA3000C0
:1004A00092185B4150EA0107EDD152EA030012D0E5
:1004B00082EA040083EA0501084305D0101BAB4122
:1004C00006D20122002306E000224FF0004302E0A2
:1004D0006FF0010253101AEB06004CEB085110EBC1
:1004E0000A0041EB0B01BDE8F04D00F0EFB80EB58E
:1004F000C10F80EAE0700844CA07002140F233438C
:100500008DE80E000A460B4600F0EFF803B000BD80
:100510000EB540F2334102910021CDE900110A46A7
:100520000B4600F0E2F803B000BD70B5C1F30A520B
:1005300001F000450024C1F3130140F2FF3341F400
:1005400080119A4201DA002070BD40F233439A4292
:10055000A2F2334203DC5242FFF706FE00E0904075
:100560002C43F1D0404270BDC1F30A5210B5C1F323
:10057000130140F2FF3341F480119A4201DA002066
:1005800010BD40F233439A42A2F2334203DC52429E
:10059000FFF7EAFD10BD904010BD000030B5041E0D
:1005A00071F1000404DB4FF00044404264EB0101B0
:1005B000141E73F1000405DB1C464FF00043524249
:1005C00063EB04038B4208BF824230BD30B5041E8A
:1005D00071F1000404DB4FF00044404264EB010180
:1005E000141E73F1000405DB1C464FF00043524219
:1005F00063EB0403994208BF904230BD30B50B460F
:10060000014600202022012409E021FA02F59D4242
:1006100005D303FA02F5491B04FA02F52844151E16
:10062000A2F10102F1DC30BD2DE9F05F05460020AA
:1006300092469B4688460646814640241BE0284653
:10064000414647462246FFF78FFD53465A46C01A99
:10065000914110D311461846224600F016F82D1A83
:1006600067EB01084F4622460120002100F00DF8FB
:1006700017EB00094E41201EA4F10104DFDC4846BF
:1006800031462A464346BDE8F09F202A04DB203A43
:1006900000FA02F1002070479140C2F1200320FAD5
:1006A00003F3194390407047202A06DBCB17203A0A
:1006B00041FA02F043EAE07306E041FA02F3D04067
:1006C000C2F12002914008431946704710B5141E2C
:1006D00073F1000408DA401C41F1000192185B41FB
:1006E0001A4301D120F0010010BD2DE9F04D9246D2
:1006F0009B4611B1B1FA81F202E0B0FA80F22032E9
:100700009046FFF7C2FF04460F4640EA0A0041EA5E
:100710000B0153465A46084313D0114653EA0100D1
:1007200019D0C8F140025046FFF71EFD05460E469F
:10073000504659464246FFF7A8FF084305D001201E
:1007400004E020463946BDE8F08D0020054346EA26
:10075000E0762C4337430A986305E40AA0EB0800CF
:100760000022FD0A44EA47540A3002D5002001461F
:10077000E9E7010510196941DDE9084500196941FA
:10078000BDE8F04DA2E7C1F30A52C1F3130140F2F4
:10079000FF3341F480119A4202DA0020014670478B
:1007A00040F233439A42A2F2334202DC5242FFF754
:1007B000DBBCFFF76ABF0000064C074D06E0E068AF
:1007C00040F0010394E8070098471034AC42F6D398
:1007D000FFF7B2FC4C3C00086C3C000870B58C186C
:1007E00010F8015B15F0070301D110F8013B2A1145
:1007F00006D110F8012B03E010F8016B01F8016B32
:100800005B1EF9D12B0705D40023521E0DD401F82D
:10081000013BFAE710F8013BCB1A921C03E013F8F6
:10082000015B01F8015B521EF9D5A142D8D300202B
:1008300070BD000070B5044600688168C943C907EF
:1008400017D1816821F00101816000F08FFA05461F
:100850000AE000BF00F08AFA401B022804D9206891
:100860008068C043C00706D020688068C043C007C6
:10087000F0D0002070BDA06A40F01000A062E06AD5
:1008800040F00100E062012070BDFEE7704772B6E3
:10089000FEE7000007494A798879824201D10020A9
:1008A0007047885C521CD2B24A71052AF8D30022E4
:1008B0004A7170478803002005498A7988548879ED
:1008C000401CC0B28871052801D300208871704790
:1008D000880300200348002101600171417181718A
:1008E0007047000088030020F8B50024009490F8B9
:1008F00024202546012A12D0012280F824204A68AB
:100900001F23072A0DD20668776B521E02EB820264
:1009100093409F430B6893401F43776319E0022085
:10092000F8BD06680D2A0AD2376BD21F02EB82028D
:1009300093409F430B6893401F43376309E0F76A76
:100940000D3A02EB820293409F430B6893401F4392
:10095000F7620A68072306680A2A0AD3F7680A3A80
:1009600002EB420293409F438B6893401F43F76022
:1009700008E0376902EB420293409F438B68934043
:100980001F4337610A68102A01D0112A20D1124B67
:1009900002689A4217D193681B0219D4936843F4F2
:1009A000000393600968102912D10C490C4A0968A8
:1009B000B1FBF2F101EB8101490000E0491E009119
:1009C0000029FBD104E0816A41F020018162012409
:1009D00080F824502046F8BD002401407C0300200C
:1009E00040420F002DE9F04104004FF0000514D003
:1009F000A06A002628B9E66284F82460204600F048
:100A000083F82046FFF716FFA16A01F010010143A9
:100A100004D0A06A40F01000A0626BE0A16A21F44B
:100A2000885141F00201A162334923688B42E16998
:100A300004D1B1F5402F01D14FF40021277B4FF4B1
:100A4000807C41EA470261680A43A168614509D098
:100A5000012907D05FF0000194F814E0BEF1010F06
:100A600002D00AE06146F7E7C7B1A76A47F020075E
:100A7000A762E76A47F00107E7625F6827F4694702
:100A80000F435F60236899681C4F39401143996098
:100A9000A16861450BD0012909D00CE0DFF860E0C6
:100AA000A7690EEB47370F4347F40061E5E7218A5A
:100AB0000D05A5F580152168CB6A23F470032B433F
:100AC000CB62216889680F4B1940914208D1E662D8
:100AD000A16A21F0020141F00101A162BDE8F081AB
:100AE000A06A20F0020040F01000A062E06A40F02E
:100AF0000100E0620120F1E7003C0140FDF7E1FF69
:100B000000E0FFFFFE0E1FFF00B585B00021009141
:100B100001910291039100680E49884218D10E4854
:100B2000816941F400718161816901F4007104916E
:100B3000816941F0100181618069694600F010000F
:100B400004900120009003200190044800F008F870
:100B500005B000BD0024014000100240001001401B
:100B60002DE9F84FDFF8C891002409F1040A0AF1D1
:100B7000040B23460F270BF1040ED1E00125A540FD
:100B800006EA0502AA4276D1DFF8A8C14E68A6EBB4
:100B90000C0866452BD00DDC032E34D005DC36B3B3
:100BA000012E19D0022E2FD11BE0112E16D0122E9D
:100BB0002AD119E0B8F5881F19D006DCB8F5803FB6
:100BC00015D0B8F5801F1FD111E0B8F5001F0ED069
:100BD000B8F5041F18D10AE0CB6815E0CB681B1DDF
:100BE00012E0CB6808330FE0CB680C330CE08B6865
:100BF0002BB1012B4FF0080303D0456104E004231F
:100C000002E0056100E00023FF2A01D8064601E06A
:100C100000F104064FEA840501D9A5F12005D6F8B4
:100C2000008007FA05FC28EA0C0803FA05F548EAF3
:100C30000508C6F800804D68ED0070D53E4DAE69E0
:100C400046F00106AE61AD6924F0030605F001052A
:100C500000953A4D06EB050CDCF80850A607360F58
:100C600007FA06F825EA0805DFF8D480404503D1E5
:100C70004FF0000825E052E0DFF8C880404502D17F
:100C80004FF001081DE0DFF8C080404502D14FF071
:100C9000020816E0DFF8B480404502D14FF00308A7
:100CA0000FE0DFF8AC80404502D14FF0040808E0C7
:100CB000DFF8A080404502D14FF0050801E04FF079
:100CC000060808FA06F848EA0508CCF808804D68D6
:100CD000D9F80060ED034D4601D5164300E0964378
:100CE0002E604D68DAF80060AD03554601D5164315
:100CF00000E096432E604D68DBF80060ED025D4633
:100D000001D5164300E096432E604D68DEF8006082
:100D1000AD02754601D5164300E096432E60641C73
:100D20000A681646E2407FF429AFBDE8F88F00005C
:100D300000040140000011100010024000000140BA
:100D400000080140000C0140001001400014014067
:100D500000180140001C01408068084000D00120BC
:100D600070470AB1016170470904FBE701488068D8
:100D70007047000070030020024881680278114427
:100D80008160704770030020074810B5016841F08A
:100D900010010160032000F079F8002000F006F84F
:100DA00000F024F8002010BD0020024070B50D4D69
:100DB00004464FF47A712878B1FBF0F00A490968CB
:100DC000B1FBF0F000F066FB48B9102C07D200220E
:100DD0002146501E00F03AF800206C6070BD0120E2
:100DE00070BD0000700300207C0300200E4808B591
:100DF000816941F001018161816901F00101009186
:100E0000C16941F08051C161C06900F0805000901B
:100E1000052000F03BF80548416821F0E06141F011
:100E20000071416008BD0000001002400000014058
:100E3000002809DB00F01F020121914040098000D9
:100E400000F1E020C0F8001170470000F0B40E4B34
:100E50001B680C46C3F30223C3F10705042D00D918
:100E60000425191D072901D2002300E0DB1E0126FD
:100E700006FA05F1491E214099409E40761E164013
:100E80003143F0BC01F0E2BA0CED00E0064900F09D
:100E9000070208684FF6FF03184040EA0220034AA1
:100EA00010430860704700000CED00E00000FA05F8
:100EB0002DE9F84305460078354CC00754D0E06969
:100EC0000026C00008D4E06940F08050E061E0698D
:100ED000012600F0805000902E480168C90512D408
:100EE0000168804641F480710160FFF73FFF0746CB
:100EF00005E000BFFFF73AFFC01B642823D8D8F8ED
:100F00000000C005F6D5206A10F4407021D0A988F1
:100F100001F4407181421CD0206A1F49012220F453
:100F200040700A6000220A602062C00711D0FFF7FB
:100F30001DFF074641F2883808E000BFFFF716FFA3
:100F4000C11B414502D90320BDE8F883206A800710
:100F5000F4D5206A696820F44070084320621EB10D
:100F6000E06920F08050E0612878800705D560684E
:100F7000A96820F44040084360602878C00605D581
:100F80006068696920F48000084360600020DBE746
:100F90000010024000700040400442422DE9F0473A
:100FA0000F46050061D0434E306800F00700B8429C
:100FB00009D2306820F0070038433060306800F014
:100FC0000700B84251D128683B4C810712D5400731
:100FD00003D5606840F4E06060602878000703D5BE
:100FE000606840F4605060606068A96820F0F000BC
:100FF000084360602878C00728D06868012810D0AE
:101000002168022810D0890700292EDA616821F0B2
:10101000030101436160FFF7A9FE804641F2883970
:101020000DE021688903EFE78901EDE7FFF79EFEF8
:10103000A0EB0801494502D90320BDE8F0876068AC
:10104000696800F00C00B0EB810FEFD1306800F060
:101050000700B8420BD9306820F0070038433060F1
:10106000306800F00700B84201D00120E5E7287899
:10107000400705D56068E96820F4E06008436060D7
:101080002878000706D56068296920F4605040EA96
:10109000C100606000F038F86168084AC1F30311CC
:1010A000515CC8400649086006480068FFF77EFEAC
:1010B0000020C2E70020024000100240183800085B
:1010C0007C03002074030020044805490068496837
:1010D000044AC1F30221515CC84070477C030020E0
:1010E0000010024028380008044805490068496893
:1010F000044AC1F3C221515CC84070477C03002000
:10110000001002402838000812A185B00FC98DE8F0
:101110000F0014A0144A006804905168134801F0AD
:101120000C03042B10D0082B0ED1C1F38343C90349
:101130001DF803000AD5516804AAC1F34041515C6F
:101140000A4A5043B0FBF1F005B0704708494843E4
:10115000FAE7000002030405060708090A0B0C0D54
:101160000E0F1010010200000010024000127A0061
:1011700000093D002DE9F84F040070D02078C04DE3
:10118000C00749D06868C0F38100012807D06868AB
:10119000C0F38100022809D16868C00306D5286819
:1011A000800339D560680028E7D035E06068B0F585
:1011B000803F0BD010B1B0F5A02F11D0286820F4DB
:1011C00080302860286820F4802002E0286840F4FD
:1011D00080302860606890B1FFF7C8FD06460AE0DD
:1011E000286840F480202860F0E700BFFFF7BEFDCC
:1011F000801B642873D828688003F7D50CE0FFF7BC
:10120000B5FD064605E000BFFFF7B0FD801B642872
:10121000F0D828688003F7D420789A4E80074FF0E2
:1012200001094FF0000839D5686810F00C0F07D09D
:101230006868C0F38100022809D16868C00306D439
:101240002868800714D52069012808D110E020699A
:10125000B0B1C6F80090FFF789FD074605E00AE146
:10126000FFF784FDC01B0228C4D828688007F7D583
:101270002868616920F0F80040EAC10028600DE0AC
:10128000C6F80080FFF772FD074604E0FFF76EFD29
:10129000C01B022823D828688007F7D420780007CD
:1012A0002CD57948A169D9B1C0F80090FFF75EFD4F
:1012B000074604E0FFF75AFDC01B02280FD8686AF2
:1012C0008007F7D571484FF4FA510068B0FBF1F090
:1012D000009000BF0098411E0091FAD20EE080E01D
:1012E000C0F80080FFF742FD074604E0FFF73EFD2F
:1012F000C01B022875D8686A8007F7D42078400799
:1013000060D5E8690027C00008D4E86940F0805043
:10131000E861E869012700F0805000905C480168AE
:10132000C90513D40168834641F480710160FFF759
:101330001DFD824606E000BFFFF718FDA0EB0A0086
:1013400064284ED8DBF80000C005F5D5E068012818
:101350000AD008B1052813D0286A20F001002862BD
:10136000286A20F0040002E0286A40F001002862A8
:10137000E06841F2883B98B1FFF7F8FC82460BE049
:10138000286A40F004002862EEE700BFFFF7EEFC99
:10139000A0EB0A0159455AD8286A8007F6D50CE017
:1013A000FFF7E4FC824605E0FFF7E0FCA0EB0A0152
:1013B00059454CD8286A8007F6D41FB1E86920F057
:1013C0008050E861E06988B36968C1F3810102294E
:1013D00044D00228C6F8608004D0FFF7C7FC04465A
:1013E00038E034E0FFF7C2FC074604E0FFF7BEFC3C
:1013F000C01B02282BD828688001F7D4206AB0F5DA
:10140000803F05D16868A16820F400300843686017
:10141000D4E908010843696821F47411084368603D
:10142000C6F86090FFF7A2FC044606E025E000BF86
:10143000FFF79CFC001B022809D828688001F7D51B
:101440001BE000BFFFF792FC001B022802D903201B
:10145000BDE8F88F28688001F4D40EE00128F7D0A9
:101460006868226A00F48031914204D1616A00F414
:101470007010884201D00120EAE70020E8E7000070
:101480000010024000004242800442427C030020DF
:101490000070004010B5401EB0F1807F01D30120E4
:1014A00010BD4FF0E02460610F21601700F0CEFF07
:1014B0000020A06107202061002010BD7047704708
:1014C00070B590F83C20012A2CD0012480F83C40D3
:1014D000022280F83D2003685A689D6822F0700659
:1014E0000A6832435A60104B02689A420ED00F4B82
:1014F0009A420BD0B2F1804F08D00D4B9A4205D0E2
:101500000C4B9A4202D00C4B9A4204D1496825F008
:1015100080031943916080F83D40002180F83C1021
:10152000084670BD022070BD002C0140003401400F
:101530000004004000080040000C004010B504000A
:1015400003D094F83D0010B107E0012010BD002049
:1015500084F83C00204600F01FF8022084F83D008B
:10156000211D206800F05EFE012084F8460084F80A
:101570003E0084F83F0084F8400084F8410084F87D
:10158000420084F8430084F8440084F8450084F85D
:101590003D00002010BD000008B500680B498842DE
:1015A00012D10B48C16941F01001C161C06900222C
:1015B00000F01000009011463620FFF747FCBDE810
:1015C00008403620FFF734BC08BD00000010004082
:1015D0000010024090F83D10012901D00120704711
:1015E000022180F83D100168CA6842F00102CA6019
:1015F00000680E4988420ED00D4988420BD0B0F1E8
:10160000804F08D00B49884205D00B49884202D050
:101610000A49884204D1816801F00701062903D0F4
:10162000016841F00101016000207047002C014079
:10163000003401400004004000080040000C00405D
:10164000704770B50446006801694FF00005C94352
:10165000890715D4C168C943890711D4E91E0161FE
:1016600001202077206880698007204602D0FFF79C
:10167000E7FF04E000F098F8204600F096F82577A0
:1016800020680169C943490717D4C168C94349079C
:1016900013D46FF004010161022020772068806973
:1016A00010F4407F204602D0FFF7CAFF04E000F0AC
:1016B0007BF8204600F079F8257720680169C94356
:1016C000090716D4C168C943090712D46FF008018D
:1016D0000161042020772068C0698007204602D07D
:1016E000FFF7AEFF04E000F05FF8204600F05DF881
:1016F000257720680169C943C90617D4C168C94361
:10170000C90613D46FF0100101610820207720680A
:10171000C06910F4407F204602D0FFF791FF04E03B
:1017200000F042F8204600F040F825772068016973
:10173000C943C90708D1C168C943C90704D1891E73
:101740000161204600F032F820680169C9430906AA
:1017500009D4C168C943090605D46FF0800101614D
:101760002046FFF7ABFE20680169C943490609D44A
:10177000C168C943490605D46FF0400101612046A4
:1017800000F02CF820680169C94389060BD4C168B0
:10179000C943890607D46FF0200101612046BDE8E6
:1017A0007040FFF78CBE70BD7047704701680848F5
:1017B00081420CD1074A6FF001011268116106499C
:1017C0000A8842F400420A800168002101607047E3
:1017D00000100040400800206E030020704770B5E4
:1017E000040004D094F83D00002510B106E001206B
:1017F00070BD84F83C50204600F022F8242084F884
:101800003D002068C16821F40051C160204600F00D
:101810004FFD2068016921F4904101612068416910
:1018200021F02A0141612068C16841F40051C16082
:101830002564202084F83D0084F83E00002070BD1F
:1018400070B586B000250446009501950295039574
:1018500000681B49884230D11A49886940F48040A9
:101860008861886900F480400490886940F0040031
:1018700088618869144E00F00400049048150090B7
:10188000022001900320039069463046FFF768F973
:101890003015CDE90005694630460295FFF760F93D
:1018A000002211462520FFF7D1FA2520FFF7C0FAC4
:1018B0002068C16841F02001C16006B070BD000021
:1018C000003801400010024000080140FEE700001F
:1018D00070B52B4D012600B12E702A4C02212046F6
:1018E000FFF73AFAA8B108212046FFF735FA80B190
:1018F00010212046FFF730FA58B120212046FFF78B
:101900002BFA30B102212046FFF726FA012822D017
:1019100034E0022001F098FC0020287002212046CB
:10192000FFF71AFA78B108212046FFF715FA60B1DF
:1019300010212046FFF710FA48B120212046FFF77A
:101940000BFA30B11AE0502070BD202070BD40204D
:1019500070BD602070BD08212046FFF7FDF9012809
:101960000CD110212046FFF7F7F9012806D12021DC
:101970002046FFF7F1F9012800D12E70002070BD3C
:1019800068030020000C01403EB50024114800947B
:10199000019402940E49846001600473047501256A
:1019A00005614FF460214460C161FFF71BF808B185
:1019B000FEF76DFF0A20CDE900056946029405484F
:1019C000FEF792FF002801D0FEF761FF3EBD000048
:1019D000002401401008002070B586B0002523487F
:1019E0000095019502950395816941F0200181617F
:1019F000816901F020010491816941F01001816148
:101A0000816901F010010491816941F0080181614F
:101A1000816901F008010491816941F0040181614B
:101A20008069134E00F0040004900122C121304669
:101A3000FFF797F901240094CDE901456946304646
:101A40000394FFF78DF83A20CDE90005694602942A
:101A50003046FFF785F8C0208DE831000320039061
:101A600069463046FFF77CF806B070BD00100240B2
:101A7000000C01401CB50024104800940E4901944C
:101A8000016041F61F41C0E901144FF47A71C16051
:101A900080218161FFF752FD08B1FEF7F8FE009446
:101AA000694606480194FFF70BFD08B1FEF7EFFE0B
:101AB0000248FFF78FFD1CBD0010004040080020C9
:101AC0000C4810B50A4901604FF4E1314160002132
:101AD00081600C22C160C0E904128161C161FFF71D
:101AE0007EFE002803D0BDE81040FEF7D0BE10BD3A
:101AF0000038014088080020FEE7FEE7704700003C
:101B00004FF480610148FEF746BB0000310C002015
:101B10002DE9F84F0E46002715460446B04201D283
:101B20000C460646102D00D91025DFF87891A01B31
:101B3000C0B2D9F80C10A8428C70C87001D3681ECE
:101B4000C87000F089F95849502802D0202811D0D7
:101B500028E0D9F80C20107808B10B7823B1507820
:101B600000B3097819B11DE0401E10701AE0401E44
:101B7000507017E0D9F80C000278C3789A4204D26A
:101B800091F800C0BCF1000F07D04278EB1A5B1E41
:101B90009A4207DA097819B104E0521C027001E098
:101BA000521C4270D9F80C10F30048780A7810449F
:101BB00000F0FF08E000C1E90103514200EBC10061
:101BC000C1B28620009039A30122002000F0D8FA8B
:101BD0000226062C0AD00096D9F80C007F22416814
:101BE000002008310B4600F083F84CB10096D9F87C
:101BF0000C007F22816800204B1E491E00F078F8FF
:101C00002846FEF785FC044626480E46C16848680B
:101C100089688146401A0830FEF77AFC224633462E
:101C2000FEF7F6FB06460C4608F10100FEF770FCD5
:101C300032462346FEF77AFB82468B4609F10700BF
:101C4000FEF766FC52465B46FEF76AFBFEF78CFC2D
:101C50008146FEF75DFC32462346FEF7C0FAFEF7EA
:101C600083FC0346042000907F2249467C2000F03C
:101C7000A5F8012000900B487F22C068D0E901310F
:101C80007C20DB1D00F09AF8094807E0B84501D137
:101C9000012100E00021C1557F1CFFB2AF42F5D900
:101CA000BDE8F88F000400208103002025630000B8
:101CB000210C002010B5802816D2402914D2072309
:101CC000A3EBD10301F00701C1F107040121A140F9
:101CD000064CDBB204EBC000002AC25CC9B201D0E2
:101CE0000A4300E08A43C25410BD0000310C0020BA
:101CF0002DE9F84F9846131A1BB2A8EB01040FFA0E
:101D000084FC002B01DD012500E000254FF0FF34AD
:101D100004EB45050095BCF1000F01DD012500E055
:101D2000002504EB450B002706B20DB23C46002B04
:101D300000DA5B420FFA83F9BCF1000F01DACCF153
:101D4000000C0FFA8CFAD1451DDD009802EB00085B
:101D500015E07F1C3B46294630460A9A00F035FBC9
:101D600004EB0A0004B2B9EB440F05DC05EB0B00F1
:101D700005B2A4EB090004B20098304406B2B045A5
:101D8000E7D1BDE8F88FD84415E07F1C3B462946D3
:101D900030460A9A00F019FB04EB090004B2BAEBD2
:101DA000440F05DC0098304406B2A4EB0A0004B2EC
:101DB00005EB0B0005B2A845E7D1E2E72DE9F843B2
:101DC0000646089F1D4690460C464FF000097807CE
:101DD00015D4A7B1324610460097FFF789FF2B466E
:101DE0004246194630460097FFF782FF42462B468F
:101DF000214610460097FFF77BFF00970FE046450E
:101E000002D9304646468046AC4201D91C460D46B2
:101E10000FB14FF00109AC4206D1CDF80090234636
:101E200042461946304607E0464512D132462B4617
:101E300021461046CDF80090FFF75AFFBDE8F88321
:101E40002346424619463046CDF80090FFF750FF32
:101E5000641CAC42F4D9F1E70148007870470000F7
:101E60008003002001F05EBC01F0FEBB10B504460B
:101E7000FFF7FAFF4FF480610348FEF78CF9204624
:101E8000BDE8104000F024B8310C0020FEF714BD6E
:101E900010B5FEF7FFFC0C4C2070606800F01EF8D7
:101EA000606880688047207860280CD160780028BE
:101EB00009D160684068002805D0606003480021AF
:101EC00000680170417010BD800300200C040020E8
:101ED00001494860FEF7FEBC80030020F8B50546C6
:101EE0000068FEF775F9001D00EB40004006060E85
:101EF000C6F18000C0F347042868009012A30122B5
:101F00003821A01C00F03CF901273923A21C1946F6
:101F100006200097FFF7ECFEA01939237922194615
:101F2000801E0097FFF7E4FE686800280BD0084881
:101F30004078002807D18520009006A3012238218F
:101F4000002000F01DF9F8BD5B202573205D000026
:101F500080030020256300002DE9FC5F8B460446CA
:101F600000F0FF0815461E461946684600F05CF86A
:101F70009DF80000203D00EA06099DF8020005F0EA
:101F8000FF0A401E45B21FE09DF80220019900267D
:101F90000AFB02102F5C380601D54A4603E0B9F16E
:101FA000000F15D0002259462046FFF783FE780621
:101FB000070E641CA4EB080008280BD0761CF6B2B0
:101FC000082EE8D36D1E6DB2002DDDDABDE8FC9F52
:101FD0000122E8E744460BF1010BF3E72DE9FC4150
:101FE0008846054616461F4600241946684600F0F6
:101FF0001BF809E03B4641462846FFF7ADFF9DF838
:102000000100641C0544E4B2325D002AF2D1BDE84F
:10201000FC81000010B50348FFF724FFBDE8104025
:10202000FFF76EBD310C0020024BD3E90023C0E95D
:102030000023704790030020F8B504461E480E4662
:102040000078800737D4102C35D2204600F0D4F920
:10205000012830D1204600F0DDF907461748184D19
:10206000005D012809D1FFF7F7FE402805D115488A
:102070000660E9680020087048703068009012A37C
:1020800001223946062000F07BF8872000900FA33C
:1020900001223946732000F073F8E868417800782F
:1020A0000844A04207D18420009008A301223821CF
:1020B0007A2000F065F8F8BD81030020210C002093
:1020C0000004002084030020257300002563000025
:1020D0002DE9F8430646214801249C400078154626
:1020E0008846800737D4102E35D2304600F084F968
:1020F000012830D1304600F08DF907461848805D40
:10210000012806D1FFF7A8FE402802D128686040C8
:10211000286014A3012239460620CDF8008000F083
:102120002FF82868204201D00FA300E010A301225D
:102130003946442000F024F80F48C0684178007800
:102140000844B04207D1842000900CA3012238211A
:102150007A2000F015F8BDE8F88300008103002024
:10216000210C0020257300005B4F4E205D00000015
:102170005B4F46465D000000000400202563000020
:102180000FB408B506AB0093059B00F06FF901B0E2
:102190005DF814FB7047FEF7EFBD30B595B0282110
:1021A0006846FDF7F8FF14210AA8FDF7F4FF18218F
:1021B0000FA8FDF7F0FF01210804CDE9001000256C
:1021C000029502240491CDE907404FF4E0100990F4
:1021D0006846FEF7CFFF08B172B6FEE70AA90F20E6
:1021E00081E831004FF48060CDE90D0502210AA895
:1021F000FEF7D4FE08B172B6FEE74FF4004011902E
:102200000F940FA8FEF754FE002801D072B6FEE727
:1022100015B030BD704700000148FFF712BA00004A
:1022200040080020F0B502681C4B1D4D1D4E1E4F8E
:102230001E4C4FF0804C984209D0A04207D0604518
:1022400005D0A84203D0B04201D0B84204D122F058
:10225000700E4A6842EA0E02984209D0A04207D0A6
:10226000604505D0A84203D0B04201D0B84203D1A6
:1022700022F44075CA682A434D6922F080022A433D
:1022800002608A68C2620A688262984201D0A042F3
:1022900001D10969016301214161F0BD002C0140B8
:1022A0000004004000080040000C004000340140E1
:1022B00070B5044600680169E26821F44051114399
:1022C00001612169A0680843616908432168CA68FF
:1022D00041F20C639A430243CA6020684169A269D3
:1022E00021F44071114341611E492068884202D1A6
:1022F000FEF7FAFE01E0FEF7E7FE00EBC00101EB9E
:102300000012606864218000B2FBF0F3B3FBF1F3CC
:102310006FF018067343B2FBF0F5B2FBF0F605EB75
:102320008305322303EB0515B5FBF1F5B6FBF1F69A
:1023300005F0F00505EB0615B2FBF0F6B2FBF0F088
:10234000B0FBF1F06FF01802504306EB800003EB96
:102350000010B0FBF1F0216800F00F002844886005
:1023600070BD000000380140124810B500680068D8
:10237000C04380061AD4104800684FF00002C4B26F
:102380000E480188090402D5028011040ED4018888
:10239000B1F5487F0BD20A4B5A6219B91A6842F05C
:1023A00001021A60074A5454491C018010BD41F4CF
:1023B0000041FAE788080020043801406E0300203D
:1023C00000100040CC080020FEE712F0030206D007
:1023D000012A08D0022A04D0032A04D106E00022F0
:1023E00002E0DA07FBD00122FFF764BC03F003022E
:1023F000022AF8D2F3E700000549C9684A78801A32
:1024000004D4C978884201DC01207047002070475D
:10241000000400200349C9688A784978101A0844E2
:10242000C00070470004002037B514460846064B2C
:102430006A46214600F0A2FA04466946002000F0F0
:102440004FFE20463EBD0000E13000080907090E9E
:10245000002804DB00F1E02080F80014704700F051
:102460000F0000F1E02080F8141D70472DE9FF4FA8
:1024700093B0C6B203200F901D464FF0000B684684
:102480001599FFF7D1FD0020CDF8400015F9010B9B
:10249000002878D0252801D0C2B2ADE04FF0000A64
:1024A00015F9010BD1465146302804D02D2804D00F
:1024B0002E2805D008E0012000E00220824601E03D
:1024C0004FF0010B15F9010BA0F13002092A11D8C8
:1024D000BBF1010F07D009EB890200EB4200303855
:1024E00000F0FF09EEE701EB810100EB410030381D
:1024F000C1B2E7E7BBF1010F03D1072900D90721DA
:102500000F916C2801D04C2803D115F9010B4AF02A
:10251000040A002837D0A0F161010246192901D828
:10252000203A52B24F2A71D008DC422A6FD0432A97
:102530005ED0442A6CD0462A06D16AE0532A10D0D5
:10254000552AF7D0582A7DD0DDE91413C2B230469F
:10255000FFF702FD9DF801003044C6B20120109043
:1025600044E12098002450F8048B209001E0641C82
:10257000E4B218F804000028F9D1002703945FEAB8
:102580008A700DD511E035E1DDE9141320223046C3
:10259000FFF7E2FC9DF801007F1C30443FB2C6B259
:1025A0002046641CE4B24845EED3DDE914134246EC
:1025B0003046FFF713FD9DF80110039801FB006002
:1025C000C6B20398384407B20BE0DDE914132022A9
:1025D0003046FFF7C1FC9DF801007F1C30443FB23C
:1025E000C6B22046641CE4B24845EED31097FDE025
:1025F000209810F8042B2090DDE914133046FFF7E3
:10260000ABFC9DF801003044C6B2EFE078E075E025
:1026100078E020980022C01D20F007001346F0E863
:10262000021420908846A34608465946FDF7B6FF97
:1026300005D20F988BF0004B40F008000F904046F9
:10264000594600E060E0FDF770FF07B20F980124E3
:1026500000F00700059005E004EB84014900401EEE
:102660000CB2C0B20128F7D53846FDF740FF42460C
:102670005B46FDF758FE80468B462046FDF737FF48
:1026800042465B46FDF752FEFDF74FFF02B20020C7
:102690004FF030084FF00A0C0BAB05990EE04AB131
:1026A00092FBFCF40CFB142492FBFCF2303412B2CB
:1026B0001C5401E003F80080401CC0B2491EC9B29E
:1026C000EDD22E211954401C5FFA80F497FBFCF0E8
:1026D0000CFB107097FBFCF130301855641C0FB2E6
:1026E000E4B20FB1102CF1D30F98000703D52D20C1
:1026F0001855641CE4B24FF0000B38E0022304E0EC
:10270000082302E00A2300E010235FEA4A7101D4A3
:10271000442A05D0209C442A02CC209403D007E010
:10272000209A02CA2092002902DA49424AF0080A95
:1027300000240BAFB1FBF3F203FB1212B1FBF3F178
:1027400052B2092A05DD782817D04FF0070C6244F1
:1027500052B230323A55641CE4B209B1102CE9D3BC
:102760005FEA0A7003D52D203855641CE4B2274671
:102770005FEACA7004D0302003E04FF0270CE6E790
:102780002020804609E0DDE9141342463046FFF779
:10279000E3FB9DF801003044C6B25FEA8A7004D4BE
:1027A00038467F1CFFB24845EDD30DF12C0A641E5C
:1027B000E4B2DDE914131AF804203046FFF7CCFB2D
:1027C0009DF80100002C3044C6B2F0D109E0DDE9EB
:1027D000141342463046FFF7BFFB9DF8010030441A
:1027E000C6B238467F1CFFB24845F0D31098401C53
:1027F0007FF44CAE17B0BDE8F08F02E008C8121F9E
:1028000008C1002AFAD170477047002001E001C1D9
:10281000121F002AFBD170472DE9FF5FDDE902207E
:10282000010DDDF838B0024318D044F61050A1F283
:10283000FF3141430D140F98012820D0A5EB0B0068
:10284000401C5FEA000A4FF00004474EDFF81C917D
:10285000A046504616D5CAF1000728E00F9801247B
:1028600043A2012808D0002100980F9BC0E9002155
:10287000C0E90243BDE8FF9F6FEA0B01F4E7CBF12B
:102880000000DEE7074612E0F80707D0224633468D
:1028900040464946FDF74AFD804689462246334672
:1028A00010461946FDF742FD04460E467F10002FE4
:1028B000EAD1DDE90201BAF1000F42464B4602DAE5
:1028C000FDF734FD01E0FDF7A3FD04460E460022AE
:1028D000284BFDF77BFE03D84FF0FF30014607E0A1
:1028E0000022254B20463146FDF779FCFDF74BFFD2
:1028F000102409E0002C0ADB0A220023FDF794FED5
:10290000019B30321A55641E50EA0102F2D1641C58
:10291000019AC4F1110314440F9A012A03D0012231
:1029200008430DD10AE0084304D000204FF0110BFA
:102930000F9080E7A3EB0B056D1E0DE05B4504DDFA
:102940004FF0000205F1010504E003DA4FF0000248
:10295000A5F10105002AECD000980F99C0E90231D9
:10296000C0E9004586E70000000024400000F03F79
:10297000300000000000F0430000E03F2DE9FF4F71
:1029800095B09B468946064600250FE2252877D15B
:1029900000242746F84A0121059400E0044316F874
:1029A000013F203B01FA03F01042F7D130782A288A
:1029B00011D06FF02F033078A0F13002092A16D819
:1029C000059A44F0020402EB820203EB4202104437
:1029D000761C0590EFE759F8042B0592002A03DADC
:1029E000504244F40054059044F00204761C3078C0
:1029F0002E2816D116F8010F44F004042A280DD011
:102A00006FF02F023078A0F13003092B09D807EBC3
:102A1000870302EB4303C718761CF3E759F8047BDE
:102A2000761C30786C280FD006DC4C2817D068282C
:102A30000DD06A2814D104E0742810D07A280FD160
:102A40000DE044F400140AE044F4801401E044F47E
:102A500040147278824202D104F58014761C761CF0
:102A6000307866280BD013DC582877D009DC002892
:102A700075D04528F6D04628F4D047281AD19DE1D4
:102A800018E0632835D0642879D0652812D195E103
:102A9000702873D008DC6728F1D069286FD06E28C1
:102AA0000DD06F2806D1B5E073282CD0752875D0CD
:102AB000782874D05A46179990476D1C75E1C4F375
:102AC0000250022809D003280DD0D9F8001004289C
:102AD0000DD00D6009F1040967E1D9F80010EA177B
:102AE000C1E90052F6E7D9F800100D80F2E70D7049
:102AF000F0E719F8041B8DF8001000208DF8010094
:102B0000EA46012003E059F804AB4FF0FF306107BB
:102B10004FF0000102D40DE008F101018846B942EE
:102B20000FDA8045F8DB1AF808100029F4D108E024
:102B300008F1010188468142FADB1AF808100029E1
:102B4000F6D105985B46A0EB080721463846179A50
:102B500000F094FA284400EB080507E04DE029E175
:102B60000DE01AF8010B5A4617999047B8F1010881
:102B7000F7D25B4621463846179A13E142E00A2213
:102B80000092C4F302524FF0000A022A08D059F80A
:102B900004CB032A4FEAEC710AD00DE029E02AE0C9
:102BA00009F1070121F00702F2E802C1914609E0AC
:102BB0000FFA8CFC4FEAEC71042A03D14FFA8CFC1B
:102BC0004FEAEC71002907DA0A460021DCF1000C1B
:102BD00061EB02012D2202E0220504D52B228DF8A3
:102BE0000420012203E0E20701D02022F7E790460B
:102BF00059E00A2102E010220DE010214FF0000AF6
:102C000000910BE010224FF0000A44F00404082762
:102C1000009203E008224FF0000A0092C4F302522F
:102C2000022A05D059F804CB0021032A08D009E074
:102C300009F1070121F00702F2E802C1914605E01F
:102C40001FFA8CFC042A01D10CF0FF0C4FF0000895
:102C5000220728D5702806D0009B83F0100353EA82
:102C60000A0305D00EE040228DF80420012208E07E
:102C70005CEA010206D030228DF804208DF80500B0
:102C800002229046009B83F0080353EA0A030AD10C
:102C90005CEA010201D1620705D530228DF80420DB
:102CA0004FF001087F1E582804D034A003900EA8CE
:102CB00002900DE036A0F9E753466046009AFDF712
:102CC000B3FC84460398825C0298401E0290027016
:102CD0005CEA0100F0D1029806A9081A00F1200A66
:102CE000600702D524F4803400E00127574502DD57
:102CF000A7EB0A0000E0002000EB0A010090059815
:102D00004144401A0590E00306D45B462146179AD9
:102D1000059800F0B3F90544002706E001A85A46DB
:102D2000C05D179990476D1C7F1C4745F6DBE0039B
:102D30000CD55B462146179A059800F09FF905448B
:102D400004E030205A46179990476D1C0099481EA0
:102D500000900029F5DC08E0029802995A460078B4
:102D6000491C0291179990476D1CBAF10001AAF114
:102D7000010AF1DC65E1000009280100303132333D
:102D800034353637383961626364656600000000A7
:102D90003031323334353637383941424344454691
:102DA0000000000000F058F90544761C3078002837
:102DB0007FF4ECAD19B02846BDE8F08F620700D46F
:102DC000062709F1070222F0070CFCE80223E1467E
:102DD00003F000485FEA080C02D00FF2702C0DE0FF
:102DE0005FEA045C02D50FF2682C07E05FEAC47C5E
:102DF00002D00FF2602C01E0AFF2700C4FF0FF3800
:102E000023F00043CDF850C065280CD006DC4528DF
:102E100009D046281DD047283DD13DE0662818D06E
:102E200067287ED138E00021112F01DB112000E05E
:102E3000781CCDE9000106A90EA8FFF7EDFCDDE93D
:102E40000F010E9A03910021009207F1010A0491EB
:102E50004DE04FF000400097CDE9011006A90EA803
:102E6000FFF7DAFCDDE90F0203920E9B11990022B5
:102E7000DDF80CA00093049211B9791C00EB010A53
:102E8000B7EB0A0004D4C0F1FF3007F1010A049047
:102E9000AAEB0700019044E0012F00DA012700218E
:102EA000112F01DD112000E03846CDE9000106A90F
:102EB0000EA8FFF7B1FCDDE90F010E9A0391002186
:102EC00004910092BA4621070CD40399514500DAC7
:102ED0008A46BAF1010F05DD009AAAF10101515CA1
:102EE000302908D0B84202DA10F1040F06DA0121C5
:102EF000CDE9011015E0AAF10101E9E7002805DCA0
:102F0000049901440491AAEB000102E0411C5145DF
:102F100000DD8A460499401A401C01904FF00040A1
:102F20000290200704D40198504501DBCDF80480BD
:102F300000208DF84F0002980DF14F07B0F1004FBF
:102F400025D02B200E9002984FF0020800280CDAB2
:102F5000404202902D200E9007E00A210298FDF7D2
:102F60004DFB3031029007F8011DB8F10001A8F1C6
:102F70000108F2DC02980028EFD1791E0E98087043
:102F8000307800F0200040F0450007F8020D12A84C
:102F9000C01B00F107081498007800B1012000EB75
:102FA0000A01019801EBE07105984144401A401E66
:102FB0000590E00306D45B462146179A059800F079
:102FC0005DF805441498007818B15A46179990474F
:102FD0006D1CE00324D55B462146179A059800F046
:102FE0004DF805441CE00498002807DBDDE90301E7
:102FF000884203DD0098405C179901E01799302062
:103000005A469047049805F10105401C0490019828
:10301000401E019004D12E205A46179990476D1CEE
:10302000BAF10001AAF1010ADDDC05E017F8010B95
:103030005A46179990476D1CB8F10001A8F1010894
:10304000F4DC5B462146179A0598ABE62D0000009C
:103050002B000000200000002DE9F041044600256F
:103060001E461746880404D405E039462020B047A0
:103070006D1C641EF9D52846BDE8F0812DE9F041AC
:10308000044600251E469046C80301D5302700E0BF
:103090002027880404D505E041463846B0476D1C1A
:1030A000641EF9D52846BDE8F081000010B5002166
:1030B00001220846FEF72CFD0323BDE81040024A1A
:1030C00002A10020FFF704B80400002073656E64BD
:1030D000206D6F6465204F4E2F4F46460000000064
:1030E0000A68531C0B6010707047000010B5002177
:1030F00001220846FEF70CFD0223BDE81040024AFB
:1031000002A10020FEF7E4BF040000205443502039
:10311000636F6E6E656374696F6E204F4E2F4F46FE
:103120004600000010B5002101220846FEF7F0FC21
:103130000123BDE81040024A02A10020FEF7C8BFEB
:10314000040000205749464920636F6E6E65637422
:10315000696F6E204F4E2F4F4646000010B500217C
:1031600001220846FEF7D4FC0023BDE81040024AC5
:1031700002A11846FEF7ACBF04000020574946499B
:1031800020696E6974204F4E2F4F464600000000A4
:1031900010B5042200210620FEF7BAFC0A490020DF
:1031A000FEF74AFF084901200C31FEF745FF0649AA
:1031B00002201831FEF740FF0349BDE810402431DA
:1031C0000320FEF739BF000014000020084910B5A5
:1031D0008B880022C3F30E038B800649CA54014634
:1031E0000448FCF7E3FF002800D0012010BD0000D8
:1031F0006A030020CC08002070B5104C20684006FF
:10320000FCD50E4E2B25361D35600F2000F01CF826
:1032100020684006FCD535600F2000F015F82068C6
:103220004006FCD535604FF4FA7000F00DF8BDE8AB
:103230007040142202A103A000F06CB800380140D5
:103240004F4B00004154000070B5054600244FF478
:103250007A7603E0304600F004F8641CAC42F9D3FF
:1032600070BD10B54FF0E02300219A69C0EBC00497
:1032700004EB801408E098698242A2EB000211443A
:1032800001DC01F2077102468C42F4D810BD000047
:1032900010B5C82211A112A000F03CF84FF47A74C6
:1032A0002046FFF7D1FFC8220CA10FA000F032F892
:1032B0002046FFF7C9FFC82208A10EA000F02AF897
:1032C0002046FFF7C1FFC8220EA110A000F022F88F
:1032D0002046BDE81040FFF7B7BF00004F4B00008D
:1032E000415445300000000041542B43574D4F449A
:1032F000453D310041542B43574155544F434F4EA8
:103300004E3D300056657273696F6E0041542B520A
:10331000535400002DE9F0410F46014614460025A4
:103320000DA000F02BFA0E4E0CE00A20FFF78CFFE8
:10333000B088000406D53846FFF748FF08B10025DD
:1033400003E00225641EE4B2EFD20020B08004B98D
:1033500001252846BDE8F08125730D0A0000000014
:103360006A030020144810B50078144C4010C107BF
:10337000607813D001281DD1C82211A111A0FFF738
:10338000C9FFC820FFF760FFC8220DA110A0FFF7FA
:10339000C1FF0A20FFF758FF00200AE0002809D1EA
:1033A000C82207A111A0FFF7B5FF0A20FFF74CFFC5
:1033B0000120607010BD0000040000206A0300209E
:1033C0004F4B000041542B4349504D55583D300060
:1033D00041542B43574A41503D227A78222C2231C6
:1033E00032333435363738220000000041542B4345
:1033F000575141500000000010B50848084C0078B3
:10340000C107207805D0012807D1FFF741FF002030
:1034100002E0002801D10120207010BD040000202E
:103420006A030020104810B50078104C8010C107C6
:10343000A0780BD0012815D1C8220DA10DA0FFF74F
:1034400069FF0A20FFF700FF00200AE0002809D1E9
:10345000C82207A111A0FFF75DFF0A20FFF7F4FEC5
:103460000120A07010BD0000040000206A030020AD
:103470004F4B000041542B43495053544152543D4B
:1034800022544350222C2231302E3132382E31300A
:10349000382E313339222C393030300041542B430F
:1034A0004950434C4F53450070B50D4C0025C4F8AE
:1034B00098510C48016821F070410160016841F0A9
:1034C00040510160C4F89C51022004F5CC74FFF710
:1034D000C8FE012020600220FFF7C3FE256070BDFA
:1034E00000802142000C014003480121C0F89C11DA
:1034F000C0F89811704700000080214270B50D4857
:10350000016821F070410160016841F040510160A3
:10351000094C0120C4F89C01C4F89801042004F56A
:10352000CC74FFF79EFE002565600420FFF799FE2E
:10353000256070BD000C0140008021420E4810B58E
:10354000016821F070410160016841F04051016063
:103550000A4C0020C4F89801C4F89C01042004F52A
:10356000CC74FFF77EFE012020606060BDE8104053
:103570000420FFF776BE0000000C014000802142CD
:103580002DE9F041064614480025016821F07041FC
:103590000160016841F040510160104C2F46C4F8B1
:1035A00098514FF00108F009C4F89C017006060E0E
:1035B0000220FFF756FEC4F898810220FFF751FE63
:1035C000C4F898710220FFF74CFE6D1CEDB2082D77
:1035D000E9D3BDE8F0810000000C014000802142E9
:1035E000FDF7D2FBFEF7D9FD00F0BAF8FEF7F4F9CB
:1035F000FEF766FAFEF7C8F9FEF73CFAFFF774FF2C
:103600000C48FEF733FCFFF7F7FD0A4C083C00209E
:10361000FEF75EF920702078FEF738FCFFF7ECFE2D
:10362000FFF7A0FEFFF7FEFEFEF732FCFEF7F2FC0E
:10363000EDE700000800002030B40021094B0A46E5
:103640005FF0000003EBC004401CC0B2625480284D
:10365000F8D3491CC9B20829F2D330BC014800F0A4
:1036600061B800001004002010B54FF47A70FFF725
:10367000EBFDAE2000F0A2F8202000F09FF8102013
:1036800000F09CF8B02000F099F8C82000F096F8FF
:10369000002000F093F8102000F090F8402000F097
:1036A0008DF8812000F08AF8FF2000F087F8A12033
:1036B00000F084F8A62000F081F8A82000F07EF841
:1036C0003F2000F07BF8A42000F078F8D32000F031
:1036D00075F8002000F072F8D52000F06FF8F020A7
:1036E00000F06CF8D92000F069F8222000F066F8AC
:1036F000DA2000F063F8122000F060F8DB2000F020
:103700005DF8202000F05AF88D2000F057F81420C2
:1037100000F054F8AF2000F051F8BDE81040FFF77A
:103720008BBF000070B506465FF0000404F1B000E6
:10373000C0B200F043F8002000F040F8102000F084
:103740003DF8002506EBC500005D00F04EF86D1C4D
:10375000EDB2802DF6D3641CE4B2082CE6D370BD24
:103760004FF0E020016941F00401016140F207716E
:103770004161016941F00501016170470FB40D48D5
:1037800070B5002405AA0499FEF74EFE0948FCF71F
:103790001FFD094980B2074B0A1D06E00D686D0642
:1037A000FCD51D5D1560641CA4B28442F6D370BCC8
:1037B0005DF814FB480000200038014010B50446B5
:1037C000FFF79CFE7820FFF7DBFEFFF76DFE002081
:1037D000FFF7D6FEFFF768FE2046FFF7D1FEFFF7A2
:1037E00063FEBDE81040FFF7A9BE10B50446FFF721
:1037F00085FE7820FFF7C4FEFFF756FE4020FFF756
:10380000BFFEFFF751FE2046FFF7BAFEFFF74CFE62
:10381000BDE81040FFF792BE00000000000000006D
:103820000102030406070809000000000102030466
:103830006162636465666768696A6B6C6D6E6F7000
:103840007172737475767778797A00414243444592
:10385000464748494A4B4C4D4E4F50515253545590
:10386000565758595A003031323334353637383993
:103870002B2D2A2F3D2528295B5D7B7D3C3E267C18
:103880007E5E00202E2C3A3B5F3F214023242722DE
:103890005C00000A0D000000000000000080808035
:1038A0008080008000A0A0A000000000005050F820
:1038B00050F85050002078A07028F02000C0C810A8
:1038C00020409818006090A040A8906800C04080F8
:1038D00000000000002040808080402000804020C8
:1038E0002020408000005020F820500000002020C0
:1038F000F8202000000000000000C0408000000010
:10390000F8000000000000000000C0C00000081027
:103910002040800000708898A8C88870002060202F
:103920002020207000708808304080F800708808DF
:10393000300888700010305090F8101000F880F0B7
:103940000808887000304080F088887000F80810FF
:103950002040404000708888708888700070888897
:10396000780810600000C0C000C0C000000000C0A7
:10397000C000C0408010204080402010000000F8AF
:1039800000F800000080402010204080007088086F
:10399000102000200070880868A8A870007088882F
:1039A000F888888800F08888F08888F0007088801F
:1039B0008080887000E09088888890E000F880809F
:1039C000F08080F800F88080F0808080007088802F
:1039D0008098887800888888F888888800E0404047
:1039E000404040E00038101010109060008890A017
:1039F000C0A0908800808080808080F80088D8A84F
:103A0000A8888888008888C8A898888800708888CE
:103A10008888887000F08888F080808000708888AE
:103A200088A8906800F08888F0A09088007088804E
:103A30007008887000F820202020202000888888C6
:103A400088888870008888888888502000888888BE
:103A5000A8A8A850008888502050888800888850DE
:103A60002020202000F80810204080F800E080800E
:103A7000808080E0000080402010080000E02020CE
:103A8000202020E0002050880000000000000000FE
:103A9000000000F8008040200000000000000070DE
:103AA00008788878008080B0C88888F000000060BE
:103AB00090809060000808689888887800000070FE
:103AC00088F8807000205040E040404000000078BE
:103AD00088887808708080B0C88888880040004056
:103AE000404040400020006020202020C080809086
:103AF000A0C0A09000C04040404040E0000000D086
:103B0000A8A88888000000B0D090909000000060C5
:103B100090909060000000E09090E0808000007045
:103B20009090701010000050604040400000007005
:103B3000806010E0004040E04040406000000090A5
:103B400090909070000000888888502000000088C5
:103B500088A8A850000000885020508800000090DD
:103B600090907010600000F8102040F80020404055
:103B70008040402000202020202020200080404045
:103B800020404080006890000000000000FCFCFC29
:103B9000FCFCFCFC00002070A8202000000020207D
:103BA000A8702000000010207820100000002010D5
:103BB00078102000000050487C08100000002040D1
:103BC000F84828000000E0F0F8F0E00000001018CD
:103BD0001C181000000080402040803C00000000C5
:103BE000000000A80000000073656E6464617461E9
:103BF00000000000776966695F636F6E6E00000009
:103C00007463705F636F6E6E0000000077696669B1
:103C10005F696E6974000000776966695F6C69733B
:103C2000740000004C4F574552000000555050455D
:103C3000520000004E554D424552000053594D422E
:103C40004F4C00004354524C000000006C3C0008F4
:103C50000000002010040000DC070008F83C000809
:103C600010040020281000000A2800088113183CC6
:103C700042081391311B080C0C190D1B205D0C4BD5
:103C8000F43B0C1A250C11591813ED305B08E81899
:103C90001AAD0C4103FF415401FF01FF0121120144
:103CA0003C010101082182100B1024F4281306089E
:103CB0001395383A081F123C33081A5A30105A2C00
:103CC000105A4B101A3410321C5A66101A3C10321B
:103CD0000E5A83101A441032032A921022051398A8
:103CE000031B20A8041AB8041AC8041AD804811A9D
:083CF000E80C13EC0B020020AC
:0400000508000131BD
:00000001FF
