:020000040800F2
:10000000F00700204501000863130008ED11000807
:10001000611300080702000899150008000000009D
:10002000000000000000000000000000671300084E
:1000300009020008000000006513000869130008A9
:100040005F0100085F0100085F0100085F01000810
:100050005F0100085F0100085F0100085F01000800
:100060005F0100085F0100085F0100085F010008F0
:100070005F0100085F0100085F0100085F010008E0
:100080005F0100085F0100085F0100085F010008D0
:100090005F0100085F0100085F0100085F010008C0
:1000A0005F0100085F0100085F0100085F010008B0
:1000B0005F0100085F0100085F0100085F010008A0
:1000C0005F0100085F0100085F0100085F01000890
:1000D0005F010008391500085F0100085F01000892
:1000E0005F0100085F0100085F0100085F01000870
:1000F0005F0100085F0100085F0100085F01000860
:100100005F0100085F0100085F0100085F0100084F
:100110005F0100085F010008E91300085F010008A3
:100120005F0100085F0100085F0100085F0100082F
:10013000DFF80CD000F02AF800480047ED15000861
:10014000F00700200648804706480047FEE7FEE724
:10015000FEE7FEE7FEE7FEE7FEE7FEE7FEE7FEE777
:10016000E713000831010008D2B201E000F8012BCA
:10017000491EFBD270470022F6E710B513460A4627
:1001800004461946FFF7F0FF204610BD064C074D08
:1001900006E0E06840F0010394E807009847103457
:1001A000AC42F6D3FFF7C8FF4416000864160008F7
:1001B00070B5044600688168C943C90717D18168D2
:1001C00021F00101816000F061FA05460AE000BFFC
:1001D00000F05CFA401B022804D920688068C04304
:1001E000C00706D020688068C043C007F0D0002058
:1001F00070BDA06A40F01000A062E06A40F001000B
:10020000E062012070BDFEE7704772B6FEE70000B5
:10021000F8B50024009490F824202546012A12D035
:10022000012280F824204A681F23072A0DD206687D
:10023000776B521E02EB820293409F430B68934000
:100240001F43776319E00220F8BD06680D2A0AD221
:10025000376BD21F02EB820293409F430B6893409F
:100260001F43376309E0F76A0D3A02EB82029340BD
:100270009F430B6893401F43F7620A680723066891
:100280000A2A0AD3F7680A3A02EB420293409F43D4
:100290008B6893401F43F76008E0376902EB420226
:1002A00093409F438B6893401F4337610A68102A2D
:1002B00001D0112A20D1124B02689A4217D19368BB
:1002C0001B0219D4936843F4000393600968102952
:1002D00012D10C490C4A0968B1FBF2F101EB810122
:1002E000490000E0491E00910029FBD104E0816A29
:1002F00041F020018162012480F824502046F8BD9D
:10030000002401401000002040420F002DE9F04180
:1003100004004FF0000514D0A06A002628B9E66258
:1003200084F82460204600F083F82046FFF740FF61
:10033000A16A01F01001014304D0A06A40F010004E
:10034000A0626BE0A16A21F4885141F00201A16230
:10035000334923688B42E16904D1B1F5402F01D1C3
:100360004FF40021277B4FF4807C41EA470261680B
:100370000A43A168614509D0012907D05FF0000157
:1003800094F814E0BEF1010F02D00AE06146F7E7ED
:10039000C7B1A76A47F02007A762E76A47F00107DD
:1003A000E7625F6827F469470F435F6023689968D5
:1003B0001C4F394011439960A16861450BD0012958
:1003C00009D00CE0DFF860E0A7690EEB47370F4378
:1003D00047F40061E5E7218A0D05A5F58015216840
:1003E000CB6A23F470032B43CB62216889680F4BDF
:1003F0001940914208D1E662A16A21F0020141F060
:100400000101A162BDE8F081A06A20F0020040F085
:100410001000A062E06A40F00100E0620120F1E714
:10042000003C0140FDF7E1FF00E0FFFFFE0E1FFF73
:1004300000B585B0002100910191029103910068FF
:100440000E49884218D10E48816941F400718161DA
:10045000816901F400710491816941F010018161A9
:100460008069694600F0100004900120009003208C
:100470000190044800F008F805B000BD00240140D8
:1004800000100240001001402DE9F84FDFF8C8913C
:10049000002409F1040A0AF1040B23460F270BF18B
:1004A000040ED1E00125A54006EA0502AA4276D154
:1004B000DFF8A8C14E68A6EB0C0866452BD00DDC12
:1004C000032E34D005DC36B3012E19D0022E2FD1E5
:1004D0001BE0112E16D0122E2AD119E0B8F5881F74
:1004E00019D006DCB8F5803F15D0B8F5801F1FD1B4
:1004F00011E0B8F5001F0ED0B8F5041F18D10AE0BE
:10050000CB6815E0CB681B1D12E0CB6808330FE009
:10051000CB680C330CE08B682BB1012B4FF0080338
:1005200003D0456104E0042302E0056100E00023FC
:10053000FF2A01D8064601E000F104064FEA8405CF
:1005400001D9A5F12005D6F8008007FA05FC28EAB4
:100550000C0803FA05F548EA0508C6F800804D685E
:10056000ED0070D53E4DAE6946F00106AE61AD6955
:1005700024F0030605F0010500953A4D06EB050C45
:10058000DCF80850A607360F07FA06F825EA080532
:10059000DFF8D480404503D14FF0000825E052E059
:1005A000DFF8C880404502D14FF001081DE0DFF8B8
:1005B000C080404502D14FF0020816E0DFF8B48059
:1005C000404502D14FF003080FE0DFF8AC80404512
:1005D00002D14FF0040808E0DFF8A080404502D1C6
:1005E0004FF0050801E04FF0060808FA06F848EA5F
:1005F0000508CCF808804D68D9F80060ED034D4639
:1006000001D5164300E096432E604D68DAF800608D
:10061000AD03554601D5164300E096432E604D6864
:10062000DBF80060ED025D4601D5164300E096431D
:100630002E604D68DEF80060AD02754601D51643A8
:1006400000E096432E60641C0A681646E2407FF480
:1006500029AFBDE8F88F0000000401400000111030
:10066000001002400000014000080140000C014061
:10067000001001400014014000180140001C01401E
:100680000AB1016170470904FBE700000148806876
:10069000704700000400002002488168027811447D
:1006A0008160704704000020074810B5016841F0E0
:1006B00010010160032000F079F8002000F006F836
:1006C00000F024F8002010BD0020024070B50D4D50
:1006D00004464FF47A712878B1FBF0F00A490968B2
:1006E000B1FBF0F000F066FB48B9102C07D20022F5
:1006F0002146501E00F03AF800206C6070BD0120C9
:1007000070BD000004000020100000200E4808B555
:10071000816941F001018161816901F0010100916C
:10072000C16941F08051C161C06900F08050009002
:10073000052000F03BF80548416821F0E06141F0F8
:100740000071416008BD000000100240000001403F
:10075000002809DB00F01F020121914040098000C0
:1007600000F1E020C0F8001170470000F0B40E4B1B
:100770001B680C46C3F30223C3F10705042D00D9FF
:100780000425191D072901D2002300E0DB1E0126E4
:1007900006FA05F1491E214099409E40761E1640FA
:1007A0003143F0BC00F0F9BE0CED00E0064900F06A
:1007B000070208684FF6FF03184040EA0220034A88
:1007C00010430860704700000CED00E00000FA05DF
:1007D0002DE9F84305460078354CC00754D0E06950
:1007E0000026C00008D4E06940F08050E061E06974
:1007F000012600F0805000902E480168C90512D4EF
:100800000168804641F480710160FFF73FFF0746B1
:1008100005E000BFFFF73AFFC01B642823D8D8F8D3
:100820000000C005F6D5206A10F4407021D0A988D8
:1008300001F4407181421CD0206A1F49012220F43A
:1008400040700A6000220A602062C00711D0FFF7E2
:100850001DFF074641F2883808E000BFFFF716FF8A
:10086000C11B414502D90320BDE8F883206A8007F7
:10087000F4D5206A696820F44070084320621EB1F4
:10088000E06920F08050E0612878800705D5606835
:10089000A96820F44040084360602878C00605D568
:1008A0006068696920F48000084360600020DBE72D
:1008B0000010024000700040400442422DE9F04721
:1008C0000F46050061D0434E306800F00700B84283
:1008D00009D2306820F0070038433060306800F0FB
:1008E0000700B84251D128683B4C810712D5400718
:1008F00003D5606840F4E06060602878000703D5A5
:10090000606840F4605060606068A96820F0F000A2
:10091000084360602878C00728D06868012810D094
:100920002168022810D0890700292EDA616821F099
:10093000030101436160FFF7A9FE804641F2883957
:100940000DE021688903EFE78901EDE7FFF79EFEDF
:10095000A0EB0801494502D90320BDE8F087606893
:10096000696800F00C00B0EB810FEFD1306800F047
:100970000700B8420BD9306820F0070038433060D8
:10098000306800F00700B84201D00120E5E7287880
:10099000400705D56068E96820F4E06008436060BE
:1009A0002878000706D56068296920F4605040EA7D
:1009B000C100606000F038F86168084AC1F30311B3
:1009C000515CC8400649086006480068FFF77EFE93
:1009D0000020C2E700200240001002402A16000852
:1009E00010000020080000200448054900684968FC
:1009F000044AC1F30221515CC84070471000002036
:100A0000001002403A160008044805490068496889
:100A1000044AC1F3C221515CC84070471000002055
:100A2000001002403A16000812A185B00FC98DE8E7
:100A30000F0014A0144A006804905168134801F094
:100A40000C03042B10D0082B0ED1C1F38343C90330
:100A50001DF803000AD5516804AAC1F34041515C56
:100A60000A4A5043B0FBF1F005B0704708494843CB
:100A7000FAE7000002030405060708090A0B0C0D3B
:100A80000E0F1010010200000010024000127A0048
:100A900000093D002DE9F84F040070D02078C04DCA
:100AA000C00749D06868C0F38100012807D0686892
:100AB000C0F38100022809D16868C00306D5286800
:100AC000800339D560680028E7D035E06068B0F56C
:100AD000803F0BD010B1B0F5A02F11D0286820F4C2
:100AE00080302860286820F4802002E0286840F4E4
:100AF00080302860606890B1FFF7C8FD06460AE0C4
:100B0000286840F480202860F0E700BFFFF7BEFDB2
:100B1000801B642873D828688003F7D50CE0FFF7A2
:100B2000B5FD064605E000BFFFF7B0FD801B642859
:100B3000F0D828688003F7D420789A4E80074FF0C9
:100B400001094FF0000839D5686810F00C0F07D084
:100B50006868C0F38100022809D16868C00306D420
:100B60002868800714D52069012808D110E0206981
:100B7000B0B1C6F80090FFF789FD074605E00AE12D
:100B8000FFF784FDC01B0228C4D828688007F7D56A
:100B90002868616920F0F80040EAC10028600DE093
:100BA000C6F80080FFF772FD074604E0FFF76EFD10
:100BB000C01B022823D828688007F7D420780007B4
:100BC0002CD57948A169D9B1C0F80090FFF75EFD36
:100BD000074604E0FFF75AFDC01B02280FD8686AD9
:100BE0008007F7D571484FF4FA510068B0FBF1F077
:100BF000009000BF0098411E0091FAD20EE080E004
:100C0000C0F80080FFF742FD074604E0FFF73EFD15
:100C1000C01B022875D8686A8007F7D4207840077F
:100C200060D5E8690027C00008D4E86940F080502A
:100C3000E861E869012700F0805000905C48016895
:100C4000C90513D40168834641F480710160FFF740
:100C50001DFD824606E000BFFFF718FDA0EB0A006D
:100C600064284ED8DBF80000C005F5D5E0680128FF
:100C70000AD008B1052813D0286A20F001002862A4
:100C8000286A20F0040002E0286A40F0010028628F
:100C9000E06841F2883B98B1FFF7F8FC82460BE030
:100CA000286A40F004002862EEE700BFFFF7EEFC80
:100CB000A0EB0A0159455AD8286A8007F6D50CE0FE
:100CC000FFF7E4FC824605E0FFF7E0FCA0EB0A0139
:100CD00059454CD8286A8007F6D41FB1E86920F03E
:100CE0008050E861E06988B36968C1F38101022935
:100CF00044D00228C6F8608004D0FFF7C7FC044641
:100D000038E034E0FFF7C2FC074604E0FFF7BEFC22
:100D1000C01B02282BD828688001F7D4206AB0F5C0
:100D2000803F05D16868A16820F4003008436860FE
:100D3000D4E908010843696821F474110843686024
:100D4000C6F86090FFF7A2FC044606E025E000BF6D
:100D5000FFF79CFC001B022809D828688001F7D502
:100D60001BE000BFFFF792FC001B022802D9032002
:100D7000BDE8F88F28688001F4D40EE00128F7D090
:100D80006868226A00F48031914204D1616A00F4FB
:100D90007010884201D00120EAE70020E8E7000057
:100DA0000010024000004242800442421000002035
:100DB0000070004010B5401EB0F1807F01D30120CB
:100DC00010BD4FF0E02460610F21601700F0E5FBDB
:100DD0000020A06107202061002010BD70477047EF
:100DE00070B590F83C20012A2CD0012480F83C40BA
:100DF000022280F83D2003685A689D6822F0700640
:100E00000A6832435A60104B02689A420ED00F4B68
:100E10009A420BD0B2F1804F08D00D4B9A4205D0C8
:100E20000C4B9A4202D00C4B9A4204D1496825F0EF
:100E300080031943916080F83D40002180F83C1008
:100E4000084670BD022070BD002C014000340140F6
:100E50000004004000080040000C004010B50400F1
:100E600003D094F83D0010B107E0012010BD002030
:100E700084F83C00204600F01FF8022084F83D0072
:100E8000211D206800F0B6FA012084F8460084F89D
:100E90003E0084F83F0084F8400084F8410084F864
:100EA000420084F8430084F8440084F8450084F844
:100EB0003D00002010BD000008B500680B498842C5
:100EC00012D10B48C16941F01001C161C069002213
:100ED00000F01000009011463620FFF747FCBDE8F7
:100EE00008403620FFF734BC08BD00000010004069
:100EF0000010024090F83D10012901D001207047F8
:100F0000022180F83D100168CA6842F00102CA60FF
:100F100000680E4988420ED00D4988420BD0B0F1CE
:100F2000804F08D00B49884205D00B49884202D037
:100F30000A49884204D1816801F00701062903D0DB
:100F4000016841F00101016000207047002C014060
:100F5000003401400004004000080040000C004044
:100F6000704770B50446006801694FF00005C94339
:100F7000890715D4C168C943890711D4E91E0161E5
:100F800001202077206880698007204602D0FFF783
:100F9000E7FF04E000F098F8204600F096F8257787
:100FA00020680169C943490717D4C168C943490783
:100FB00013D46FF00401016102202077206880695A
:100FC00010F4407F204602D0FFF7CAFF04E000F093
:100FD0007BF8204600F079F8257720680169C9433D
:100FE000090716D4C168C943090712D46FF0080174
:100FF0000161042020772068C0698007204602D064
:10100000FFF7AEFF04E000F05FF8204600F05DF867
:10101000257720680169C943C90617D4C168C94347
:10102000C90613D46FF010010161082020772068F1
:10103000C06910F4407F204602D0FFF791FF04E022
:1010400000F042F8204600F040F82577206801695A
:10105000C943C90708D1C168C943C90704D1891E5A
:101060000161204600F032F820680169C943090691
:1010700009D4C168C943090605D46FF08001016134
:101080002046FFF7ABFE20680169C943490609D431
:10109000C168C943490605D46FF04001016120468B
:1010A00000F02CF820680169C94389060BD4C16897
:1010B000C943890607D46FF0200101612046BDE8CD
:1010C0007040FFF78CBE70BD7047704701680848DC
:1010D00081420CD1074A6FF0010112681161064983
:1010E0000A8842F400420A800168002101607047CA
:1010F000001000404400002000000020704770B540
:10110000040004D094F83D00002510B106E0012051
:1011100070BD84F83C50204600F022F8242084F86A
:101120003D002068C16821F40051C160204600F0F4
:10113000A7F92068016921F49041016120684169A3
:1011400021F02A0141612068C16841F40051C16069
:101150002564202084F83D0084F83E00002070BD06
:1011600070B586B00025044600950195029503955B
:1011700000681B49884230D11A49886940F4804090
:101180008861886900F480400490886940F0040018
:1011900088618869144E00F004000490481500909E
:1011A000022001900320039069463046FFF76CF956
:1011B0003015CDE90005694630460295FFF764F920
:1011C000002211462520FFF7D1FA2520FFF7C0FAAB
:1011D0002068C16841F02001C16006B070BD000008
:1011E000003801400010024000080140FEE7000006
:1011F0003EB5002411480094019402940E49846085
:10120000016004730475012505614FF46021446099
:10121000C161FFF77BF808B1FEF7F7FF0A20CDE9BF
:101220000005694602940548FEF7F2FF002801D048
:10123000FEF7EBFF3EBD000000240140140000203B
:1012400070B586B000252348009501950295039559
:10125000816941F020018161816901F020010491DF
:10126000816941F010018161816901F010010491EF
:10127000816941F008018161816901F008010491EF
:10128000816941F0040181618069134E00F004001E
:1012900004900122C1213046FFF7F2F901240094A5
:1012A000CDE90145694630460394FFF7EDF83A2051
:1012B000CDE90005694602943046FFF7E5F8C02005
:1012C0008DE831000320039069463046FFF7DCF8D3
:1012D00006B070BD00100240000C01401CB5002497
:1012E000104800940E490194016041F61F41C0E985
:1012F00001144FF47A71C16080218161FFF7AEFD66
:1013000008B1FEF782FF0094694606480194FFF792
:1013100067FD08B1FEF779FF0248FFF7EBFD1CBD42
:1013200000100040440000200C4810B50A4901603C
:101330004FF4E1314160002181600C22C160C0E9BD
:1013400004128161C161FFF7DAFE002803D0BDE815
:101350001040FEF75ABF10BD003801408C0000203D
:10136000FEE7FEE770477047FFF796B930B595B0D6
:1013700028216846FEF7FFFE14210AA8FEF7FBFEAF
:1013800018210FA8FEF7F7FE01210804CDE900108F
:101390000025029502240491CDE907404FF4E010A6
:1013A00009906846FFF776FB08B172B6FEE70AA916
:1013B0000F2081E831004FF48060CDE90D05022156
:1013C0000AA8FFF77BFA08B172B6FEE74FF40040B7
:1013D00011900F940FA8FFF7FBF9002801D072B607
:1013E000FEE715B030BD70470148FFF7BABD0000F9
:1013F00044000020F0B502681C4B1D4D1D4E1E4FD1
:101400001E4C4FF0804C984209D0A04207D0604556
:1014100005D0A84203D0B04201D0B84204D122F096
:10142000700E4A6842EA0E02984209D0A04207D0E4
:10143000604505D0A84203D0B04201D0B84203D1E4
:1014400022F44075CA682A434D6922F080022A437B
:1014500002608A68C2620A688262984201D0A04231
:1014600001D10969016301214161F0BD002C0140F6
:101470000004004000080040000C0040003401401F
:1014800070B5044600680169E26821F440511143D7
:1014900001612169A0680843616908432168CA683D
:1014A00041F20C639A430243CA6020684169A26911
:1014B00021F44071114341611E492068884202D1E4
:1014C000FFF7A2FA01E0FFF78FFA00EBC00101EB92
:1014D0000012606864218000B2FBF0F3B3FBF1F30B
:1014E0006FF018067343B2FBF0F5B2FBF0F605EBB4
:1014F0008305322303EB0515B5FBF1F5B6FBF1F6D9
:1015000005F0F00505EB0615B2FBF0F6B2FBF0F0C6
:10151000B0FBF1F06FF01802504306EB800003EBD4
:101520000010B0FBF1F0216800F00F002844886043
:1015300070BD000000380140124810B50068006816
:10154000C04380061AD4104800684FF00002C4B2AD
:101550000E480188090402D5028011040ED40188C6
:10156000B1F5487F0BD20A4B5A6219B91A6842F09A
:1015700001021A60074A5454491C018010BD41F40D
:101580000041FAE78C0000200438014000000020F0
:1015900000100040D0000020FEE70907090E0028D7
:1015A00004DB00F1E02080F80014704700F00F0029
:1015B00000F1E02080F8141D704702E008C8121FF7
:1015C00008C1002AFAD170477047002001E001C12C
:1015D000121F002AFBD1704703480121C0F89C115B
:1015E000C0F898117047000000802142FFF75CF8B6
:1015F000FFF7BCFE00F00BF8FFF722FEFFF794FEAA
:10160000FFF7F6FDFFF76AFEFFF7E6FFFEE74FF094
:10161000E020016941F00401016140F2077141617C
:10162000016941F005010161704700000000000000
:10163000000001020304060708090000000001027F
:1016400003040000641600080000002014000000DD
:10165000BA1500087816000814000020DC07000006
:10166000CA15000800000000010000001000000082
:08167000000000000024F4005A
:0400000508000131BD
:00000001FF
